{
  "_format": "hh-sol-artifact-1",
  "contractName": "Transactions",
  "sourceName": "contracts/Transactions.sol",
  "abi": [
    {
      "anonymous": false,
      "inputs": [
        {
          "indexed": false,
          "internalType": "address",
          "name": "from",
          "type": "address"
        },
        {
          "indexed": false,
          "internalType": "address",
          "name": "receiver",
          "type": "address"
        },
        {
          "indexed": false,
          "internalType": "uint256",
          "name": "amount",
          "type": "uint256"
        },
        {
          "indexed": false,
          "internalType": "uint256",
          "name": "timestamp",
          "type": "uint256"
        },
        {
          "indexed": false,
          "internalType": "string",
          "name": "weapon",
          "type": "string"
        },
        {
          "indexed": false,
          "internalType": "string",
          "name": "weaponType",
          "type": "string"
        },
        {
          "indexed": false,
          "internalType": "string",
          "name": "weaponUrl",
          "type": "string"
        }
      ],
      "name": "Transfer",
      "type": "event"
    },
    {
      "inputs": [
        {
          "internalType": "address payable",
          "name": "receiver",
          "type": "address"
        },
        {
          "internalType": "uint256",
          "name": "amount",
          "type": "uint256"
        },
        {
          "internalType": "string",
          "name": "weapon",
          "type": "string"
        },
        {
          "internalType": "string",
          "name": "weaponType",
          "type": "string"
        },
        {
          "internalType": "string",
          "name": "weaponUrl",
          "type": "string"
        }
      ],
      "name": "addToBlockchain",
      "outputs": [],
      "stateMutability": "nonpayable",
      "type": "function"
    },
    {
      "inputs": [],
      "name": "getTransactions",
      "outputs": [
        {
          "components": [
            {
              "internalType": "address",
              "name": "sender",
              "type": "address"
            },
            {
              "internalType": "address",
              "name": "receiver",
              "type": "address"
            },
            {
              "internalType": "uint256",
              "name": "amount",
              "type": "uint256"
            },
            {
              "internalType": "uint256",
              "name": "timestamp",
              "type": "uint256"
            },
            {
              "internalType": "string",
              "name": "weapon",
              "type": "string"
            },
            {
              "internalType": "string",
              "name": "weaponType",
              "type": "string"
            },
            {
              "internalType": "string",
              "name": "weaponUrl",
              "type": "string"
            }
          ],
          "internalType": "struct Transactions.Ts[]",
          "name": "",
          "type": "tuple[]"
        }
      ],
      "stateMutability": "view",
      "type": "function"
    }
  ],
  "bytecode": "0x608060405234801561001057600080fd5b50610c35806100206000396000f3fe608060405234801561001057600080fd5b50600436106100365760003560e01c806383920e901461003b578063be9863a314610059575b600080fd5b610043610075565b6040516100509190610981565b60405180910390f35b610073600480360381019061006e919061064e565b61034a565b005b60606000805480602002602001604051908101604052809291908181526020016000905b8282101561034157838290600052602060002090600702016040518060e00160405290816000820160009054906101000a900473ffffffffffffffffffffffffffffffffffffffff1673ffffffffffffffffffffffffffffffffffffffff1673ffffffffffffffffffffffffffffffffffffffff1681526020016001820160009054906101000a900473ffffffffffffffffffffffffffffffffffffffff1673ffffffffffffffffffffffffffffffffffffffff1673ffffffffffffffffffffffffffffffffffffffff168152602001600282015481526020016003820154815260200160048201805461018c90610b30565b80601f01602080910402602001604051908101604052809291908181526020018280546101b890610b30565b80156102055780601f106101da57610100808354040283529160200191610205565b820191906000526020600020905b8154815290600101906020018083116101e857829003601f168201915b5050505050815260200160058201805461021e90610b30565b80601f016020809104026020016040519081016040528092919081815260200182805461024a90610b30565b80156102975780601f1061026c57610100808354040283529160200191610297565b820191906000526020600020905b81548152906001019060200180831161027a57829003601f168201915b505050505081526020016006820180546102b090610b30565b80601f01602080910402602001604051908101604052809291908181526020018280546102dc90610b30565b80156103295780601f106102fe57610100808354040283529160200191610329565b820191906000526020600020905b81548152906001019060200180831161030c57829003601f168201915b50505050508152505081526020019060010190610099565b50505050905090565b60006040518060e001604052803373ffffffffffffffffffffffffffffffffffffffff1681526020018773ffffffffffffffffffffffffffffffffffffffff16815260200186815260200142815260200185815260200184815260200183815250908060018154018082558091505060019003906000526020600020906007020160009091909190915060008201518160000160006101000a81548173ffffffffffffffffffffffffffffffffffffffff021916908373ffffffffffffffffffffffffffffffffffffffff16021790555060208201518160010160006101000a81548173ffffffffffffffffffffffffffffffffffffffff021916908373ffffffffffffffffffffffffffffffffffffffff16021790555060408201518160020155606082015181600301556080820151816004019080519060200190610492929190610519565b5060a08201518160050190805190602001906104af929190610519565b5060c08201518160060190805190602001906104cc929190610519565b5050507fc20f5110745c268bbca207b5b754fe4419b9c4bea8b21a8cb4f67447a9b2221b3386864287878760405161050a97969594939291906108fd565b60405180910390a15050505050565b82805461052590610b30565b90600052602060002090601f016020900481019282610547576000855561058e565b82601f1061056057805160ff191683800117855561058e565b8280016001018555821561058e579182015b8281111561058d578251825591602001919060010190610572565b5b50905061059b919061059f565b5090565b5b808211156105b85760008160009055506001016105a0565b5090565b60006105cf6105ca846109d4565b6109a3565b9050828152602081018484840111156105e757600080fd5b6105f2848285610aee565b509392505050565b60008135905061060981610bd1565b92915050565b600082601f83011261062057600080fd5b81356106308482602086016105bc565b91505092915050565b60008135905061064881610be8565b92915050565b600080600080600060a0868803121561066657600080fd5b6000610674888289016105fa565b955050602061068588828901610639565b945050604086013567ffffffffffffffff8111156106a257600080fd5b6106ae8882890161060f565b935050606086013567ffffffffffffffff8111156106cb57600080fd5b6106d78882890161060f565b925050608086013567ffffffffffffffff8111156106f457600080fd5b6107008882890161060f565b9150509295509295909350565b60006107198383610835565b905092915050565b61072a81610ab8565b82525050565b61073981610a6a565b82525050565b61074881610a6a565b82525050565b600061075982610a14565b6107638185610a37565b93508360208202850161077585610a04565b8060005b858110156107b15784840389528151610792858261070d565b945061079d83610a2a565b925060208a01995050600181019050610779565b50829750879550505050505092915050565b60006107ce82610a1f565b6107d88185610a48565b93506107e8818560208601610afd565b6107f181610bc0565b840191505092915050565b600061080782610a1f565b6108118185610a59565b9350610821818560208601610afd565b61082a81610bc0565b840191505092915050565b600060e08301600083015161084d6000860182610730565b5060208301516108606020860182610730565b50604083015161087360408601826108df565b50606083015161088660608601826108df565b506080830151848203608086015261089e82826107c3565b91505060a083015184820360a08601526108b882826107c3565b91505060c083015184820360c08601526108d282826107c3565b9150508091505092915050565b6108e881610aae565b82525050565b6108f781610aae565b82525050565b600060e082019050610912600083018a61073f565b61091f6020830189610721565b61092c60408301886108ee565b61093960608301876108ee565b818103608083015261094b81866107fc565b905081810360a083015261095f81856107fc565b905081810360c083015261097381846107fc565b905098975050505050505050565b6000602082019050818103600083015261099b818461074e565b905092915050565b6000604051905081810181811067ffffffffffffffff821117156109ca576109c9610b91565b5b8060405250919050565b600067ffffffffffffffff8211156109ef576109ee610b91565b5b601f19601f8301169050602081019050919050565b6000819050602082019050919050565b600081519050919050565b600081519050919050565b6000602082019050919050565b600082825260208201905092915050565b600082825260208201905092915050565b600082825260208201905092915050565b6000610a7582610a8e565b9050919050565b6000610a8782610a8e565b9050919050565b600073ffffffffffffffffffffffffffffffffffffffff82169050919050565b6000819050919050565b6000610ac382610aca565b9050919050565b6000610ad582610adc565b9050919050565b6000610ae782610a8e565b9050919050565b82818337600083830152505050565b60005b83811015610b1b578082015181840152602081019050610b00565b83811115610b2a576000848401525b50505050565b60006002820490506001821680610b4857607f821691505b60208210811415610b5c57610b5b610b62565b5b50919050565b7f4e487b7100000000000000000000000000000000000000000000000000000000600052602260045260246000fd5b7f4e487b7100000000000000000000000000000000000000000000000000000000600052604160045260246000fd5b6000601f19601f8301169050919050565b610bda81610a7c565b8114610be557600080fd5b50565b610bf181610aae565b8114610bfc57600080fd5b5056fea264697066735822122078c8cc31347debf6018a0bd09972514036ab55690ccf23b1c0999039bcf54cc464736f6c63430008000033",
  "linkReferences": {},
  "deployedLinkReferences": {}
}