{
  "_format": "hh-sol-artifact-1",
  "contractName": "Transactions",
  "sourceName": "contracts/Transactions.sol",
  "abi": [
    {
      "anonymous": false,
      "inputs": [
        {
          "indexed": false,
          "internalType": "address",
          "name": "from",
          "type": "address"
        },
        {
          "indexed": false,
          "internalType": "address",
          "name": "receiver",
          "type": "address"
        },
        {
          "indexed": false,
          "internalType": "uint256",
          "name": "amount",
          "type": "uint256"
        },
        {
          "indexed": false,
          "internalType": "uint256",
          "name": "timestamp",
          "type": "uint256"
        },
        {
          "indexed": false,
          "internalType": "string",
          "name": "weapon",
          "type": "string"
        },
        {
          "indexed": false,
          "internalType": "string",
          "name": "weaponType",
          "type": "string"
        },
        {
          "indexed": false,
          "internalType": "string",
          "name": "weaponUrl",
          "type": "string"
        },
        {
          "indexed": false,
          "internalType": "string",
          "name": "id",
          "type": "string"
        }
      ],
      "name": "Transfer",
      "type": "event"
    },
    {
      "inputs": [
        {
          "internalType": "address payable",
          "name": "receiver",
          "type": "address"
        },
        {
          "internalType": "uint256",
          "name": "amount",
          "type": "uint256"
        },
        {
          "internalType": "string",
          "name": "weapon",
          "type": "string"
        },
        {
          "internalType": "string",
          "name": "weaponType",
          "type": "string"
        },
        {
          "internalType": "string",
          "name": "weaponUrl",
          "type": "string"
        },
        {
          "internalType": "string",
          "name": "id",
          "type": "string"
        }
      ],
      "name": "addToBlockchain",
      "outputs": [],
      "stateMutability": "nonpayable",
      "type": "function"
    },
    {
      "inputs": [],
      "name": "getTransactionCount",
      "outputs": [
        {
          "internalType": "uint256",
          "name": "",
          "type": "uint256"
        }
      ],
      "stateMutability": "view",
      "type": "function"
    },
    {
      "inputs": [],
      "name": "getTransactions",
      "outputs": [
        {
          "components": [
            {
              "internalType": "address",
              "name": "sender",
              "type": "address"
            },
            {
              "internalType": "address",
              "name": "receiver",
              "type": "address"
            },
            {
              "internalType": "uint256",
              "name": "amount",
              "type": "uint256"
            },
            {
              "internalType": "uint256",
              "name": "timestamp",
              "type": "uint256"
            },
            {
              "internalType": "string",
              "name": "weapon",
              "type": "string"
            },
            {
              "internalType": "string",
              "name": "weaponType",
              "type": "string"
            },
            {
              "internalType": "string",
              "name": "weaponUrl",
              "type": "string"
            },
            {
              "internalType": "string",
              "name": "id",
              "type": "string"
            }
          ],
          "internalType": "struct Transactions.Ts[]",
          "name": "",
          "type": "tuple[]"
        }
      ],
      "stateMutability": "view",
      "type": "function"
    }
  ],
  "bytecode": "0x608060405234801561001057600080fd5b50610e35806100206000396000f3fe608060405234801561001057600080fd5b50600436106100415760003560e01c80632e7700f01461004657806383920e9014610064578063be97e7ba14610082575b600080fd5b61004e61009e565b60405161005b9190610b03565b60405180910390f35b61006c6100a7565b6040516100799190610ae1565b60405180910390f35b61009c60048036038101906100979190610753565b61040f565b005b60008054905090565b60606001805480602002602001604051908101604052809291908181526020016000905b828210156104065783829060005260206000209060080201604051806101000160405290816000820160009054906101000a900473ffffffffffffffffffffffffffffffffffffffff1673ffffffffffffffffffffffffffffffffffffffff1673ffffffffffffffffffffffffffffffffffffffff1681526020016001820160009054906101000a900473ffffffffffffffffffffffffffffffffffffffff1673ffffffffffffffffffffffffffffffffffffffff1673ffffffffffffffffffffffffffffffffffffffff16815260200160028201548152602001600382015481526020016004820180546101bf90610d01565b80601f01602080910402602001604051908101604052809291908181526020018280546101eb90610d01565b80156102385780601f1061020d57610100808354040283529160200191610238565b820191906000526020600020905b81548152906001019060200180831161021b57829003601f168201915b5050505050815260200160058201805461025190610d01565b80601f016020809104026020016040519081016040528092919081815260200182805461027d90610d01565b80156102ca5780601f1061029f576101008083540402835291602001916102ca565b820191906000526020600020905b8154815290600101906020018083116102ad57829003601f168201915b505050505081526020016006820180546102e390610d01565b80601f016020809104026020016040519081016040528092919081815260200182805461030f90610d01565b801561035c5780601f106103315761010080835404028352916020019161035c565b820191906000526020600020905b81548152906001019060200180831161033f57829003601f168201915b5050505050815260200160078201805461037590610d01565b80601f01602080910402602001604051908101604052809291908181526020018280546103a190610d01565b80156103ee5780601f106103c3576101008083540402835291602001916103ee565b820191906000526020600020905b8154815290600101906020018083116103d157829003601f168201915b505050505081525050815260200190600101906100cb565b50505050905090565b60016000808282546104219190610be5565b9250508190555060016040518061010001604052803373ffffffffffffffffffffffffffffffffffffffff1681526020018873ffffffffffffffffffffffffffffffffffffffff16815260200187815260200142815260200186815260200185815260200184815260200183815250908060018154018082558091505060019003906000526020600020906008020160009091909190915060008201518160000160006101000a81548173ffffffffffffffffffffffffffffffffffffffff021916908373ffffffffffffffffffffffffffffffffffffffff16021790555060208201518160010160006101000a81548173ffffffffffffffffffffffffffffffffffffffff021916908373ffffffffffffffffffffffffffffffffffffffff1602179055506040820151816002015560608201518160030155608082015181600401908051906020019061057792919061061e565b5060a082015181600501908051906020019061059492919061061e565b5060c08201518160060190805190602001906105b192919061061e565b5060e08201518160070190805190602001906105ce92919061061e565b5050507f9b55bede2a5e547d7ee31e82aa09f4e9133d79343f16dec66ad737d1f0e76285338787428888888860405161060e989796959493929190610a47565b60405180910390a1505050505050565b82805461062a90610d01565b90600052602060002090601f01602090048101928261064c5760008555610693565b82601f1061066557805160ff1916838001178555610693565b82800160010185558215610693579182015b82811115610692578251825591602001919060010190610677565b5b5090506106a091906106a4565b5090565b5b808211156106bd5760008160009055506001016106a5565b5090565b60006106d46106cf84610b4f565b610b1e565b9050828152602081018484840111156106ec57600080fd5b6106f7848285610cbf565b509392505050565b60008135905061070e81610dd1565b92915050565b600082601f83011261072557600080fd5b81356107358482602086016106c1565b91505092915050565b60008135905061074d81610de8565b92915050565b60008060008060008060c0878903121561076c57600080fd5b600061077a89828a016106ff565b965050602061078b89828a0161073e565b955050604087013567ffffffffffffffff8111156107a857600080fd5b6107b489828a01610714565b945050606087013567ffffffffffffffff8111156107d157600080fd5b6107dd89828a01610714565b935050608087013567ffffffffffffffff8111156107fa57600080fd5b61080689828a01610714565b92505060a087013567ffffffffffffffff81111561082357600080fd5b61082f89828a01610714565b9150509295509295509295565b60006108488383610964565b905092915050565b61085981610c89565b82525050565b61086881610c3b565b82525050565b61087781610c3b565b82525050565b600061088882610b8f565b6108928185610bb2565b9350836020820285016108a485610b7f565b8060005b858110156108e057848403895281516108c1858261083c565b94506108cc83610ba5565b925060208a019950506001810190506108a8565b50829750879550505050505092915050565b60006108fd82610b9a565b6109078185610bc3565b9350610917818560208601610cce565b61092081610dc0565b840191505092915050565b600061093682610b9a565b6109408185610bd4565b9350610950818560208601610cce565b61095981610dc0565b840191505092915050565b60006101008301600083015161097d600086018261085f565b506020830151610990602086018261085f565b5060408301516109a36040860182610a29565b5060608301516109b66060860182610a29565b50608083015184820360808601526109ce82826108f2565b91505060a083015184820360a08601526109e882826108f2565b91505060c083015184820360c0860152610a0282826108f2565b91505060e083015184820360e0860152610a1c82826108f2565b9150508091505092915050565b610a3281610c7f565b82525050565b610a4181610c7f565b82525050565b600061010082019050610a5d600083018b61086e565b610a6a602083018a610850565b610a776040830189610a38565b610a846060830188610a38565b8181036080830152610a96818761092b565b905081810360a0830152610aaa818661092b565b905081810360c0830152610abe818561092b565b905081810360e0830152610ad2818461092b565b90509998505050505050505050565b60006020820190508181036000830152610afb818461087d565b905092915050565b6000602082019050610b186000830184610a38565b92915050565b6000604051905081810181811067ffffffffffffffff82111715610b4557610b44610d91565b5b8060405250919050565b600067ffffffffffffffff821115610b6a57610b69610d91565b5b601f19601f8301169050602081019050919050565b6000819050602082019050919050565b600081519050919050565b600081519050919050565b6000602082019050919050565b600082825260208201905092915050565b600082825260208201905092915050565b600082825260208201905092915050565b6000610bf082610c7f565b9150610bfb83610c7f565b9250827fffffffffffffffffffffffffffffffffffffffffffffffffffffffffffffffff03821115610c3057610c2f610d33565b5b828201905092915050565b6000610c4682610c5f565b9050919050565b6000610c5882610c5f565b9050919050565b600073ffffffffffffffffffffffffffffffffffffffff82169050919050565b6000819050919050565b6000610c9482610c9b565b9050919050565b6000610ca682610cad565b9050919050565b6000610cb882610c5f565b9050919050565b82818337600083830152505050565b60005b83811015610cec578082015181840152602081019050610cd1565b83811115610cfb576000848401525b50505050565b60006002820490506001821680610d1957607f821691505b60208210811415610d2d57610d2c610d62565b5b50919050565b7f4e487b7100000000000000000000000000000000000000000000000000000000600052601160045260246000fd5b7f4e487b7100000000000000000000000000000000000000000000000000000000600052602260045260246000fd5b7f4e487b7100000000000000000000000000000000000000000000000000000000600052604160045260246000fd5b6000601f19601f8301169050919050565b610dda81610c4d565b8114610de557600080fd5b50565b610df181610c7f565b8114610dfc57600080fd5b5056fea26469706673582212204a0724da2b567c47d522999dbf59ab722eeca994454dcebaf94c9225dd7d917364736f6c63430008000033",
  "linkReferences": {},
  "deployedLinkReferences": {}
}